{
	"contractName": "KNBGamev4",
	"abi": [
		{
			"inputs": [],
			"stateMutability": "payable",
			"type": "constructor"
		},
		{
			"anonymous": false,
			"inputs": [
				{
					"indexed": true,
					"internalType": "address",
					"name": "player",
					"type": "address"
				},
				{
					"indexed": false,
					"internalType": "uint256",
					"name": "playerOption",
					"type": "uint256"
				},
				{
					"indexed": false,
					"internalType": "uint256",
					"name": "computerOption",
					"type": "uint256"
				},
				{
					"indexed": false,
					"internalType": "uint256",
					"name": "result",
					"type": "uint256"
				}
			],
			"name": "GameResult",
			"type": "event"
		},
		{
			"stateMutability": "payable",
			"type": "receive"
		},
		{
			"inputs": [
				{
					"internalType": "uint8",
					"name": "_option",
					"type": "uint8"
				}
			],
			"name": "game",
			"outputs": [
				{
					"internalType": "string",
					"name": "",
					"type": "string"
				}
			],
			"stateMutability": "payable",
			"type": "function"
		}
	],
	"bytecode": "0x60806040526107db806100136000396000f3fe6080604052600436106100225760003560e01c8063d1e9f9c71461002e57610029565b3661002957005b600080fd5b610048600480360381019061004391906103ff565b61005e565b60405161005591906104c5565b60405180910390f35b606060038260ff16106100a6576040517f08c379a000000000000000000000000000000000000000000000000000000000815260040161009d9061057f565b60405180910390fd5b6002346100b391906105d8565b4710156100f5576040517f08c379a00000000000000000000000000000000000000000000000000000000081526004016100ec906106a4565b60405180910390fd5b816000806101000a81548160ff021916908360ff160217905550600060034261011e91906106f3565b90506000818460ff160361013157600090505b60008460ff161480156101445750600182145b8061015e575060018460ff1614801561015d5750600282145b5b80610178575060028460ff161480156101775750600082145b5b1561018257600190505b60008460ff161480156101955750600282145b806101af575060018460ff161480156101ae5750600082145b5b806101c9575060028460ff161480156101c85750600182145b5b156101d357600290505b60018160ff160361026f573373ffffffffffffffffffffffffffffffffffffffff167fb23ab49b4ba9602e729f07366027f225f26e664a9cfec60a5ed4cbf87a81fb048584846040516102289392919061076e565b60405180910390a26040518060400160405280600881526020017f596f7520776f6e21000000000000000000000000000000000000000000000000815250925050506103bc565b60028160ff160361030b573373ffffffffffffffffffffffffffffffffffffffff167fb23ab49b4ba9602e729f07366027f225f26e664a9cfec60a5ed4cbf87a81fb048584846040516102c49392919061076e565b60405180910390a26040518060400160405280600981526020017f596f75206c6f7374210000000000000000000000000000000000000000000000815250925050506103bc565b60008160ff16036103a7573373ffffffffffffffffffffffffffffffffffffffff167fb23ab49b4ba9602e729f07366027f225f26e664a9cfec60a5ed4cbf87a81fb048584846040516103609392919061076e565b60405180910390a26040518060400160405280600b81526020017f4974277320612074696521000000000000000000000000000000000000000000815250925050506103bc565b60405180602001604052806000815250925050505b919050565b600080fd5b600060ff82169050919050565b6103dc816103c6565b81146103e757600080fd5b50565b6000813590506103f9816103d3565b92915050565b600060208284031215610415576104146103c1565b5b6000610423848285016103ea565b91505092915050565b600081519050919050565b600082825260208201905092915050565b60005b8381101561046657808201518184015260208101905061044b565b83811115610475576000848401525b50505050565b6000601f19601f8301169050919050565b60006104978261042c565b6104a18185610437565b93506104b1818560208601610448565b6104ba8161047b565b840191505092915050565b600060208201905081810360008301526104df818461048c565b905092915050565b7f596f752063616e2063686f6f7365206f6e6c7920302c2031206f7220323f207760008201527f686572652030202d20726f636b2c2031202d2073636973736f72732c2032202d60208201527f2070617065720000000000000000000000000000000000000000000000000000604082015250565b6000610569604683610437565b9150610574826104e7565b606082019050919050565b600060208201905081810360008301526105988161055c565b9050919050565b6000819050919050565b7f4e487b7100000000000000000000000000000000000000000000000000000000600052601160045260246000fd5b60006105e38261059f565b91506105ee8361059f565b9250817fffffffffffffffffffffffffffffffffffffffffffffffffffffffffffffffff0483118215151615610627576106266105a9565b5b828202905092915050565b7f436f6e74726163742062616c616e6365206973206e6f7420737566666963696560008201527f6e7420666f7220746865207472616e73616374696f6e00000000000000000000602082015250565b600061068e603683610437565b915061069982610632565b604082019050919050565b600060208201905081810360008301526106bd81610681565b9050919050565b7f4e487b7100000000000000000000000000000000000000000000000000000000600052601260045260246000fd5b60006106fe8261059f565b91506107098361059f565b925082610719576107186106c4565b5b828206905092915050565b6000819050919050565b600061074961074461073f846103c6565b610724565b61059f565b9050919050565b6107598161072e565b82525050565b6107688161059f565b82525050565b60006060820190506107836000830186610750565b610790602083018561075f565b61079d6040830184610750565b94935050505056fea2646970667358221220b1f33b8641125131ff32e06eceb17e3a92009b510346b9d5938cef570d40cd5c64736f6c634300080d0033",
	"immutableReferences": {},
	"source": "// SPDX-License-Identifier: MIT\npragma solidity ^0.8.0;\n\n/*\nSmart-    \"--\"  KNB\n :      PC      0  2\n*/\n\ncontract KNBGamev4 {\n    uint8 option;\n\n    //1 TBNB = 10^9 gwei\n    //1 TBNB = 10^18 wei\n\n    //0.0001 TBNB = 100000000000\n    constructor() payable {}\n    event GameResult(address indexed player, uint256 playerOption, uint256 computerOption, uint256 result);\n\n    function game(uint8 _option) public payable returns (string memory) {\n        require(\n            _option < 3,\n            \"You can choose only 0, 1 or 2? where 0 - rock, 1 - scissors, 2 - paper\"\n        );\n        require(\n            address(this).balance >= msg.value * 2,\n            \"Contract balance is not sufficient for the transaction\"\n        );\n\n        option = _option; // - 0,  - 1,  - 2\n\n        //result = 0  1  2\n        uint256 result = block.timestamp % 3;\n        uint8 win = 0;\n        if (_option == result) {\n            win = 0;\n        }\n        if (_option == 0 && result == 1 || _option == 1 && result == 2 || _option == 2 && result == 0) {\n            win = 1;\n        }\n        if (_option == 0 && result == 2 || _option == 1 && result == 0 || _option == 2 && result == 1) {\n            win = 2;\n        }\n\n        if (win == 1) {\n            emit GameResult(msg.sender, _option, result, win);\n            return \"You won!\";\n        }\n\n        if (win == 2) {\n            emit GameResult(msg.sender, _option, result, win);\n            return \"You lost!\";\n        }\n        if (win == 0) {\n            emit GameResult(msg.sender, _option, result, win);\n            return \"It's a tie!\";\n        }\n        return \"\";\n    }\n\n    receive() external payable {}\n}\n",
	"sourcePath": "/Users/adilet/Documents/4_/1_/Blockchain/Assignment 2/prs_contract/contracts/KNBGamev4.sol",
	"compiler": {
		"name": "solc",
		"version": "0.8.13+commit.abaa5c0e.Emscripten.clang"
	},
	"schemaVersion": "3.4.13",
	"updatedAt": "2023-04-04T17:42:15.782Z",
	"devdoc": {
		"kind": "dev",
		"methods": {},
		"version": 1
	},
	"userdoc": {
		"kind": "user",
		"methods": {},
		"version": 1
	}
}