{
	"data": {
		"bytecode": {
			"linkReferences": {},
			"object": "6080604052610633806100136000396000f3fe6080604052600436106100225760003560e01c8063d1e9f9c71461002e57610029565b3661002957005b600080fd5b61004860048036038101906100439190610364565b61005e565b60405161005591906103ac565b60405180910390f35b600060038260ff16106100a6576040517f08c379a000000000000000000000000000000000000000000000000000000000815260040161009d90610470565b60405180910390fd5b6002346100b391906104c9565b4710156100f5576040517f08c379a00000000000000000000000000000000000000000000000000000000081526004016100ec9061057d565b60405180910390fd5b816000806101000a81548160ff021916908360ff160217905550600060034261011e91906105cc565b90506000818460ff160361013157600090505b60008460ff161480156101445750600182145b1561014e57600190505b60008460ff161480156101615750600282145b1561016b57600290505b60018460ff1614801561017e5750600082145b1561018857600290505b60018460ff1614801561019b5750600282145b156101a557600190505b60028460ff161480156101b85750600082145b156101c257600190505b60028460ff161480156101d55750600182145b156101df57600290505b60018160ff1603610248573373ffffffffffffffffffffffffffffffffffffffff166108fc60023461021191906104c9565b9081150290604051600060405180830381858888f1935050505015801561023c573d6000803e3d6000fd5b50600192505050610321565b60028160ff16036102b1573373ffffffffffffffffffffffffffffffffffffffff166108fc60013461027a91906104c9565b9081150290604051600060405180830381858888f193505050501580156102a5573d6000803e3d6000fd5b50600092505050610321565b60008160ff160361031a573373ffffffffffffffffffffffffffffffffffffffff166108fc6001346102e391906104c9565b9081150290604051600060405180830381858888f1935050505015801561030e573d6000803e3d6000fd5b50600092505050610321565b6000925050505b919050565b600080fd5b600060ff82169050919050565b6103418161032b565b811461034c57600080fd5b50565b60008135905061035e81610338565b92915050565b60006020828403121561037a57610379610326565b5b60006103888482850161034f565b91505092915050565b60008115159050919050565b6103a681610391565b82525050565b60006020820190506103c1600083018461039d565b92915050565b600082825260208201905092915050565b7f596f752063616e2063686f6f7365206f6e6c7920302c2031206f7220323f207760008201527f68657265203020202d20726f636b2c2032202d2050617065722c2031202d207360208201527f636973736f727300000000000000000000000000000000000000000000000000604082015250565b600061045a6047836103c7565b9150610465826103d8565b606082019050919050565b600060208201905081810360008301526104898161044d565b9050919050565b6000819050919050565b7f4e487b7100000000000000000000000000000000000000000000000000000000600052601160045260246000fd5b60006104d482610490565b91506104df83610490565b92508282026104ed81610490565b915082820484148315176105045761050361049a565b5b5092915050565b7f4164647265737320646f206e6f7420686176652073756666696369656e74206260008201527f616c616e63650000000000000000000000000000000000000000000000000000602082015250565b60006105676026836103c7565b91506105728261050b565b604082019050919050565b600060208201905081810360008301526105968161055a565b9050919050565b7f4e487b7100000000000000000000000000000000000000000000000000000000600052601260045260246000fd5b60006105d782610490565b91506105e283610490565b9250826105f2576105f161059d565b5b82820690509291505056fea264697066735822122026f97a30b64655b575798b0533b1af4985b13de6e52fa0551fecdacb41f67cfd64736f6c63430008120033",
			"opcodes": "PUSH1 0x80 PUSH1 0x40 MSTORE PUSH2 0x633 DUP1 PUSH2 0x13 PUSH1 0x0 CODECOPY PUSH1 0x0 RETURN INVALID PUSH1 0x80 PUSH1 0x40 MSTORE PUSH1 0x4 CALLDATASIZE LT PUSH2 0x22 JUMPI PUSH1 0x0 CALLDATALOAD PUSH1 0xE0 SHR DUP1 PUSH4 0xD1E9F9C7 EQ PUSH2 0x2E JUMPI PUSH2 0x29 JUMP JUMPDEST CALLDATASIZE PUSH2 0x29 JUMPI STOP JUMPDEST PUSH1 0x0 DUP1 REVERT JUMPDEST PUSH2 0x48 PUSH1 0x4 DUP1 CALLDATASIZE SUB DUP2 ADD SWAP1 PUSH2 0x43 SWAP2 SWAP1 PUSH2 0x364 JUMP JUMPDEST PUSH2 0x5E JUMP JUMPDEST PUSH1 0x40 MLOAD PUSH2 0x55 SWAP2 SWAP1 PUSH2 0x3AC JUMP JUMPDEST PUSH1 0x40 MLOAD DUP1 SWAP2 SUB SWAP1 RETURN JUMPDEST PUSH1 0x0 PUSH1 0x3 DUP3 PUSH1 0xFF AND LT PUSH2 0xA6 JUMPI PUSH1 0x40 MLOAD PUSH32 0x8C379A000000000000000000000000000000000000000000000000000000000 DUP2 MSTORE PUSH1 0x4 ADD PUSH2 0x9D SWAP1 PUSH2 0x470 JUMP JUMPDEST PUSH1 0x40 MLOAD DUP1 SWAP2 SUB SWAP1 REVERT JUMPDEST PUSH1 0x2 CALLVALUE PUSH2 0xB3 SWAP2 SWAP1 PUSH2 0x4C9 JUMP JUMPDEST SELFBALANCE LT ISZERO PUSH2 0xF5 JUMPI PUSH1 0x40 MLOAD PUSH32 0x8C379A000000000000000000000000000000000000000000000000000000000 DUP2 MSTORE PUSH1 0x4 ADD PUSH2 0xEC SWAP1 PUSH2 0x57D JUMP JUMPDEST PUSH1 0x40 MLOAD DUP1 SWAP2 SUB SWAP1 REVERT JUMPDEST DUP2 PUSH1 0x0 DUP1 PUSH2 0x100 EXP DUP2 SLOAD DUP2 PUSH1 0xFF MUL NOT AND SWAP1 DUP4 PUSH1 0xFF AND MUL OR SWAP1 SSTORE POP PUSH1 0x0 PUSH1 0x3 TIMESTAMP PUSH2 0x11E SWAP2 SWAP1 PUSH2 0x5CC JUMP JUMPDEST SWAP1 POP PUSH1 0x0 DUP2 DUP5 PUSH1 0xFF AND SUB PUSH2 0x131 JUMPI PUSH1 0x0 SWAP1 POP JUMPDEST PUSH1 0x0 DUP5 PUSH1 0xFF AND EQ DUP1 ISZERO PUSH2 0x144 JUMPI POP PUSH1 0x1 DUP3 EQ JUMPDEST ISZERO PUSH2 0x14E JUMPI PUSH1 0x1 SWAP1 POP JUMPDEST PUSH1 0x0 DUP5 PUSH1 0xFF AND EQ DUP1 ISZERO PUSH2 0x161 JUMPI POP PUSH1 0x2 DUP3 EQ JUMPDEST ISZERO PUSH2 0x16B JUMPI PUSH1 0x2 SWAP1 POP JUMPDEST PUSH1 0x1 DUP5 PUSH1 0xFF AND EQ DUP1 ISZERO PUSH2 0x17E JUMPI POP PUSH1 0x0 DUP3 EQ JUMPDEST ISZERO PUSH2 0x188 JUMPI PUSH1 0x2 SWAP1 POP JUMPDEST PUSH1 0x1 DUP5 PUSH1 0xFF AND EQ DUP1 ISZERO PUSH2 0x19B JUMPI POP PUSH1 0x2 DUP3 EQ JUMPDEST ISZERO PUSH2 0x1A5 JUMPI PUSH1 0x1 SWAP1 POP JUMPDEST PUSH1 0x2 DUP5 PUSH1 0xFF AND EQ DUP1 ISZERO PUSH2 0x1B8 JUMPI POP PUSH1 0x0 DUP3 EQ JUMPDEST ISZERO PUSH2 0x1C2 JUMPI PUSH1 0x1 SWAP1 POP JUMPDEST PUSH1 0x2 DUP5 PUSH1 0xFF AND EQ DUP1 ISZERO PUSH2 0x1D5 JUMPI POP PUSH1 0x1 DUP3 EQ JUMPDEST ISZERO PUSH2 0x1DF JUMPI PUSH1 0x2 SWAP1 POP JUMPDEST PUSH1 0x1 DUP2 PUSH1 0xFF AND SUB PUSH2 0x248 JUMPI CALLER PUSH20 0xFFFFFFFFFFFFFFFFFFFFFFFFFFFFFFFFFFFFFFFF AND PUSH2 0x8FC PUSH1 0x2 CALLVALUE PUSH2 0x211 SWAP2 SWAP1 PUSH2 0x4C9 JUMP JUMPDEST SWAP1 DUP2 ISZERO MUL SWAP1 PUSH1 0x40 MLOAD PUSH1 0x0 PUSH1 0x40 MLOAD DUP1 DUP4 SUB DUP2 DUP6 DUP9 DUP9 CALL SWAP4 POP POP POP POP ISZERO DUP1 ISZERO PUSH2 0x23C JUMPI RETURNDATASIZE PUSH1 0x0 DUP1 RETURNDATACOPY RETURNDATASIZE PUSH1 0x0 REVERT JUMPDEST POP PUSH1 0x1 SWAP3 POP POP POP PUSH2 0x321 JUMP JUMPDEST PUSH1 0x2 DUP2 PUSH1 0xFF AND SUB PUSH2 0x2B1 JUMPI CALLER PUSH20 0xFFFFFFFFFFFFFFFFFFFFFFFFFFFFFFFFFFFFFFFF AND PUSH2 0x8FC PUSH1 0x1 CALLVALUE PUSH2 0x27A SWAP2 SWAP1 PUSH2 0x4C9 JUMP JUMPDEST SWAP1 DUP2 ISZERO MUL SWAP1 PUSH1 0x40 MLOAD PUSH1 0x0 PUSH1 0x40 MLOAD DUP1 DUP4 SUB DUP2 DUP6 DUP9 DUP9 CALL SWAP4 POP POP POP POP ISZERO DUP1 ISZERO PUSH2 0x2A5 JUMPI RETURNDATASIZE PUSH1 0x0 DUP1 RETURNDATACOPY RETURNDATASIZE PUSH1 0x0 REVERT JUMPDEST POP PUSH1 0x0 SWAP3 POP POP POP PUSH2 0x321 JUMP JUMPDEST PUSH1 0x0 DUP2 PUSH1 0xFF AND SUB PUSH2 0x31A JUMPI CALLER PUSH20 0xFFFFFFFFFFFFFFFFFFFFFFFFFFFFFFFFFFFFFFFF AND PUSH2 0x8FC PUSH1 0x1 CALLVALUE PUSH2 0x2E3 SWAP2 SWAP1 PUSH2 0x4C9 JUMP JUMPDEST SWAP1 DUP2 ISZERO MUL SWAP1 PUSH1 0x40 MLOAD PUSH1 0x0 PUSH1 0x40 MLOAD DUP1 DUP4 SUB DUP2 DUP6 DUP9 DUP9 CALL SWAP4 POP POP POP POP ISZERO DUP1 ISZERO PUSH2 0x30E JUMPI RETURNDATASIZE PUSH1 0x0 DUP1 RETURNDATACOPY RETURNDATASIZE PUSH1 0x0 REVERT JUMPDEST POP PUSH1 0x0 SWAP3 POP POP POP PUSH2 0x321 JUMP JUMPDEST PUSH1 0x0 SWAP3 POP POP POP JUMPDEST SWAP2 SWAP1 POP JUMP JUMPDEST PUSH1 0x0 DUP1 REVERT JUMPDEST PUSH1 0x0 PUSH1 0xFF DUP3 AND SWAP1 POP SWAP2 SWAP1 POP JUMP JUMPDEST PUSH2 0x341 DUP2 PUSH2 0x32B JUMP JUMPDEST DUP2 EQ PUSH2 0x34C JUMPI PUSH1 0x0 DUP1 REVERT JUMPDEST POP JUMP JUMPDEST PUSH1 0x0 DUP2 CALLDATALOAD SWAP1 POP PUSH2 0x35E DUP2 PUSH2 0x338 JUMP JUMPDEST SWAP3 SWAP2 POP POP JUMP JUMPDEST PUSH1 0x0 PUSH1 0x20 DUP3 DUP5 SUB SLT ISZERO PUSH2 0x37A JUMPI PUSH2 0x379 PUSH2 0x326 JUMP JUMPDEST JUMPDEST PUSH1 0x0 PUSH2 0x388 DUP5 DUP3 DUP6 ADD PUSH2 0x34F JUMP JUMPDEST SWAP2 POP POP SWAP3 SWAP2 POP POP JUMP JUMPDEST PUSH1 0x0 DUP2 ISZERO ISZERO SWAP1 POP SWAP2 SWAP1 POP JUMP JUMPDEST PUSH2 0x3A6 DUP2 PUSH2 0x391 JUMP JUMPDEST DUP3 MSTORE POP POP JUMP JUMPDEST PUSH1 0x0 PUSH1 0x20 DUP3 ADD SWAP1 POP PUSH2 0x3C1 PUSH1 0x0 DUP4 ADD DUP5 PUSH2 0x39D JUMP JUMPDEST SWAP3 SWAP2 POP POP JUMP JUMPDEST PUSH1 0x0 DUP3 DUP3 MSTORE PUSH1 0x20 DUP3 ADD SWAP1 POP SWAP3 SWAP2 POP POP JUMP JUMPDEST PUSH32 0x596F752063616E2063686F6F7365206F6E6C7920302C2031206F7220323F2077 PUSH1 0x0 DUP3 ADD MSTORE PUSH32 0x68657265203020202D20726F636B2C2032202D2050617065722C2031202D2073 PUSH1 0x20 DUP3 ADD MSTORE PUSH32 0x636973736F727300000000000000000000000000000000000000000000000000 PUSH1 0x40 DUP3 ADD MSTORE POP JUMP JUMPDEST PUSH1 0x0 PUSH2 0x45A PUSH1 0x47 DUP4 PUSH2 0x3C7 JUMP JUMPDEST SWAP2 POP PUSH2 0x465 DUP3 PUSH2 0x3D8 JUMP JUMPDEST PUSH1 0x60 DUP3 ADD SWAP1 POP SWAP2 SWAP1 POP JUMP JUMPDEST PUSH1 0x0 PUSH1 0x20 DUP3 ADD SWAP1 POP DUP2 DUP2 SUB PUSH1 0x0 DUP4 ADD MSTORE PUSH2 0x489 DUP2 PUSH2 0x44D JUMP JUMPDEST SWAP1 POP SWAP2 SWAP1 POP JUMP JUMPDEST PUSH1 0x0 DUP2 SWAP1 POP SWAP2 SWAP1 POP JUMP JUMPDEST PUSH32 0x4E487B7100000000000000000000000000000000000000000000000000000000 PUSH1 0x0 MSTORE PUSH1 0x11 PUSH1 0x4 MSTORE PUSH1 0x24 PUSH1 0x0 REVERT JUMPDEST PUSH1 0x0 PUSH2 0x4D4 DUP3 PUSH2 0x490 JUMP JUMPDEST SWAP2 POP PUSH2 0x4DF DUP4 PUSH2 0x490 JUMP JUMPDEST SWAP3 POP DUP3 DUP3 MUL PUSH2 0x4ED DUP2 PUSH2 0x490 JUMP JUMPDEST SWAP2 POP DUP3 DUP3 DIV DUP5 EQ DUP4 ISZERO OR PUSH2 0x504 JUMPI PUSH2 0x503 PUSH2 0x49A JUMP JUMPDEST JUMPDEST POP SWAP3 SWAP2 POP POP JUMP JUMPDEST PUSH32 0x4164647265737320646F206E6F7420686176652073756666696369656E742062 PUSH1 0x0 DUP3 ADD MSTORE PUSH32 0x616C616E63650000000000000000000000000000000000000000000000000000 PUSH1 0x20 DUP3 ADD MSTORE POP JUMP JUMPDEST PUSH1 0x0 PUSH2 0x567 PUSH1 0x26 DUP4 PUSH2 0x3C7 JUMP JUMPDEST SWAP2 POP PUSH2 0x572 DUP3 PUSH2 0x50B JUMP JUMPDEST PUSH1 0x40 DUP3 ADD SWAP1 POP SWAP2 SWAP1 POP JUMP JUMPDEST PUSH1 0x0 PUSH1 0x20 DUP3 ADD SWAP1 POP DUP2 DUP2 SUB PUSH1 0x0 DUP4 ADD MSTORE PUSH2 0x596 DUP2 PUSH2 0x55A JUMP JUMPDEST SWAP1 POP SWAP2 SWAP1 POP JUMP JUMPDEST PUSH32 0x4E487B7100000000000000000000000000000000000000000000000000000000 PUSH1 0x0 MSTORE PUSH1 0x12 PUSH1 0x4 MSTORE PUSH1 0x24 PUSH1 0x0 REVERT JUMPDEST PUSH1 0x0 PUSH2 0x5D7 DUP3 PUSH2 0x490 JUMP JUMPDEST SWAP2 POP PUSH2 0x5E2 DUP4 PUSH2 0x490 JUMP JUMPDEST SWAP3 POP DUP3 PUSH2 0x5F2 JUMPI PUSH2 0x5F1 PUSH2 0x59D JUMP JUMPDEST JUMPDEST DUP3 DUP3 MOD SWAP1 POP SWAP3 SWAP2 POP POP JUMP INVALID LOG2 PUSH5 0x6970667358 0x22 SLT KECCAK256 0x26 0xF9 PUSH27 0x30B64655B575798B0533B1AF4985B13DE6E52FA0551FECDACB41F6 PUSH29 0xFD64736F6C634300081200330000000000000000000000000000000000 "
		},
		"gasEstimates": {
			"creation": {
				"codeDepositCost": "317400",
				"executionCost": "331",
				"totalCost": "317731"
			},
			"external": {
				"game(uint8)": "infinite"
			}
		},
		"methodIdentifiers": {
			"game(uint8)": "d1e9f9c7"
		}
	},
	"abi": [
		{
			"inputs": [],
			"stateMutability": "payable",
			"type": "constructor"
		},
		{
			"inputs": [
				{
					"internalType": "uint8",
					"name": "_option",
					"type": "uint8"
				}
			],
			"name": "game",
			"outputs": [
				{
					"internalType": "bool",
					"name": "",
					"type": "bool"
				}
			],
			"stateMutability": "payable",
			"type": "function"
		},
		{
			"stateMutability": "payable",
			"type": "receive"
		}
	]
}