{
	"src/contract/Game.sol": {
		"Game": {
			"abi": [
				{
					"inputs": [],
					"stateMutability": "payable",
					"type": "constructor"
				},
				{
					"inputs": [
						{
							"internalType": "uint8",
							"name": "_option",
							"type": "uint8"
						}
					],
					"name": "game",
					"outputs": [
						{
							"internalType": "bool",
							"name": "",
							"type": "bool"
						}
					],
					"stateMutability": "payable",
					"type": "function"
				},
				{
					"stateMutability": "payable",
					"type": "receive"
				}
			],
			"devdoc": {
				"kind": "dev",
				"methods": {},
				"version": 1
			},
			"evm": {
				"assembly": "    /* \"src/contract/Game.sol\":314:1924  contract Game {... */\n  mstore(0x40, 0x80)\n  dataSize(sub_0)\n  dup1\n  dataOffset(sub_0)\n  0x00\n  codecopy\n  0x00\n  return\nstop\n\nsub_0: assembly {\n        /* \"src/contract/Game.sol\":314:1924  contract Game {... */\n      mstore(0x40, 0x80)\n      jumpi(tag_1, lt(calldatasize, 0x04))\n      shr(0xe0, calldataload(0x00))\n      dup1\n      0xd1e9f9c7\n      eq\n      tag_3\n      jumpi\n      jump(tag_2)\n    tag_1:\n      jumpi(tag_2, calldatasize)\n      stop\n    tag_2:\n      0x00\n      dup1\n      revert\n        /* \"src/contract/Game.sol\":458:1887  function game(uint8 _option) public payable returns (bool) {... */\n    tag_3:\n      tag_6\n      0x04\n      dup1\n      calldatasize\n      sub\n      dup2\n      add\n      swap1\n      tag_7\n      swap2\n      swap1\n      tag_8\n      jump\t// in\n    tag_7:\n      tag_9\n      jump\t// in\n    tag_6:\n      mload(0x40)\n      tag_10\n      swap2\n      swap1\n      tag_11\n      jump\t// in\n    tag_10:\n      mload(0x40)\n      dup1\n      swap2\n      sub\n      swap1\n      return\n    tag_9:\n        /* \"src/contract/Game.sol\":511:515  bool */\n      0x00\n        /* \"src/contract/Game.sol\":558:559  3 */\n      0x03\n        /* \"src/contract/Game.sol\":548:555  _option */\n      dup3\n        /* \"src/contract/Game.sol\":548:559  _option < 3 */\n      0xff\n      and\n      lt\n        /* \"src/contract/Game.sol\":527:656  require(... */\n      tag_13\n      jumpi\n      mload(0x40)\n      0x08c379a000000000000000000000000000000000000000000000000000000000\n      dup2\n      mstore\n      0x04\n      add\n      tag_14\n      swap1\n      tag_15\n      jump\t// in\n    tag_14:\n      mload(0x40)\n      dup1\n      swap2\n      sub\n      swap1\n      revert\n    tag_13:\n        /* \"src/contract/Game.sol\":724:725  2 */\n      0x02\n        /* \"src/contract/Game.sol\":712:721  msg.value */\n      callvalue\n        /* \"src/contract/Game.sol\":712:725  msg.value * 2 */\n      tag_16\n      swap2\n      swap1\n      tag_17\n      jump\t// in\n    tag_16:\n        /* \"src/contract/Game.sol\":687:708  address(this).balance */\n      selfbalance\n        /* \"src/contract/Game.sol\":687:725  address(this).balance >= msg.value * 2 */\n      lt\n      iszero\n        /* \"src/contract/Game.sol\":666:789  require(... */\n      tag_18\n      jumpi\n      mload(0x40)\n      0x08c379a000000000000000000000000000000000000000000000000000000000\n      dup2\n      mstore\n      0x04\n      add\n      tag_19\n      swap1\n      tag_20\n      jump\t// in\n    tag_19:\n      mload(0x40)\n      dup1\n      swap2\n      sub\n      swap1\n      revert\n    tag_18:\n        /* \"src/contract/Game.sol\":827:834  _option */\n      dup2\n        /* \"src/contract/Game.sol\":818:824  option */\n      0x00\n      dup1\n        /* \"src/contract/Game.sol\":818:834  option = _option */\n      0x0100\n      exp\n      dup2\n      sload\n      dup2\n      0xff\n      mul\n      not\n      and\n      swap1\n      dup4\n      0xff\n      and\n      mul\n      or\n      swap1\n      sstore\n      pop\n        /* \"src/contract/Game.sol\":939:953  uint256 result */\n      0x00\n        /* \"src/contract/Game.sol\":974:975  3 */\n      0x03\n        /* \"src/contract/Game.sol\":956:971  block.timestamp */\n      timestamp\n        /* \"src/contract/Game.sol\":956:975  block.timestamp % 3 */\n      tag_21\n      swap2\n      swap1\n      tag_22\n      jump\t// in\n    tag_21:\n        /* \"src/contract/Game.sol\":939:975  uint256 result = block.timestamp % 3 */\n      swap1\n      pop\n        /* \"src/contract/Game.sol\":985:994  uint8 win */\n      0x00\n        /* \"src/contract/Game.sol\":1023:1029  result */\n      dup2\n        /* \"src/contract/Game.sol\":1012:1019  _option */\n      dup5\n        /* \"src/contract/Game.sol\":1012:1029  _option == result */\n      0xff\n      and\n      sub\n        /* \"src/contract/Game.sol\":1008:1063  if (_option == result) {... */\n      tag_23\n      jumpi\n        /* \"src/contract/Game.sol\":1051:1052  0 */\n      0x00\n        /* \"src/contract/Game.sol\":1045:1052  win = 0 */\n      swap1\n      pop\n        /* \"src/contract/Game.sol\":1008:1063  if (_option == result) {... */\n    tag_23:\n        /* \"src/contract/Game.sol\":1087:1088  0 */\n      0x00\n        /* \"src/contract/Game.sol\":1076:1083  _option */\n      dup5\n        /* \"src/contract/Game.sol\":1076:1088  _option == 0 */\n      0xff\n      and\n      eq\n        /* \"src/contract/Game.sol\":1076:1103  _option == 0 && result == 1 */\n      dup1\n      iszero\n      tag_24\n      jumpi\n      pop\n        /* \"src/contract/Game.sol\":1102:1103  1 */\n      0x01\n        /* \"src/contract/Game.sol\":1092:1098  result */\n      dup3\n        /* \"src/contract/Game.sol\":1092:1103  result == 1 */\n      eq\n        /* \"src/contract/Game.sol\":1076:1103  _option == 0 && result == 1 */\n    tag_24:\n        /* \"src/contract/Game.sol\":1072:1137  if (_option == 0 && result == 1) {... */\n      iszero\n      tag_25\n      jumpi\n        /* \"src/contract/Game.sol\":1125:1126  1 */\n      0x01\n        /* \"src/contract/Game.sol\":1119:1126  win = 1 */\n      swap1\n      pop\n        /* \"src/contract/Game.sol\":1072:1137  if (_option == 0 && result == 1) {... */\n    tag_25:\n        /* \"src/contract/Game.sol\":1161:1162  0 */\n      0x00\n        /* \"src/contract/Game.sol\":1150:1157  _option */\n      dup5\n        /* \"src/contract/Game.sol\":1150:1162  _option == 0 */\n      0xff\n      and\n      eq\n        /* \"src/contract/Game.sol\":1150:1177  _option == 0 && result == 2 */\n      dup1\n      iszero\n      tag_26\n      jumpi\n      pop\n        /* \"src/contract/Game.sol\":1176:1177  2 */\n      0x02\n        /* \"src/contract/Game.sol\":1166:1172  result */\n      dup3\n        /* \"src/contract/Game.sol\":1166:1177  result == 2 */\n      eq\n        /* \"src/contract/Game.sol\":1150:1177  _option == 0 && result == 2 */\n    tag_26:\n        /* \"src/contract/Game.sol\":1146:1211  if (_option == 0 && result == 2) {... */\n      iszero\n      tag_27\n      jumpi\n        /* \"src/contract/Game.sol\":1199:1200  2 */\n      0x02\n        /* \"src/contract/Game.sol\":1193:1200  win = 2 */\n      swap1\n      pop\n        /* \"src/contract/Game.sol\":1146:1211  if (_option == 0 && result == 2) {... */\n    tag_27:\n        /* \"src/contract/Game.sol\":1235:1236  1 */\n      0x01\n        /* \"src/contract/Game.sol\":1224:1231  _option */\n      dup5\n        /* \"src/contract/Game.sol\":1224:1236  _option == 1 */\n      0xff\n      and\n      eq\n        /* \"src/contract/Game.sol\":1224:1251  _option == 1 && result == 0 */\n      dup1\n      iszero\n      tag_28\n      jumpi\n      pop\n        /* \"src/contract/Game.sol\":1250:1251  0 */\n      0x00\n        /* \"src/contract/Game.sol\":1240:1246  result */\n      dup3\n        /* \"src/contract/Game.sol\":1240:1251  result == 0 */\n      eq\n        /* \"src/contract/Game.sol\":1224:1251  _option == 1 && result == 0 */\n    tag_28:\n        /* \"src/contract/Game.sol\":1220:1285  if (_option == 1 && result == 0) {... */\n      iszero\n      tag_29\n      jumpi\n        /* \"src/contract/Game.sol\":1273:1274  2 */\n      0x02\n        /* \"src/contract/Game.sol\":1267:1274  win = 2 */\n      swap1\n      pop\n        /* \"src/contract/Game.sol\":1220:1285  if (_option == 1 && result == 0) {... */\n    tag_29:\n        /* \"src/contract/Game.sol\":1309:1310  1 */\n      0x01\n        /* \"src/contract/Game.sol\":1298:1305  _option */\n      dup5\n        /* \"src/contract/Game.sol\":1298:1310  _option == 1 */\n      0xff\n      and\n      eq\n        /* \"src/contract/Game.sol\":1298:1325  _option == 1 && result == 2 */\n      dup1\n      iszero\n      tag_30\n      jumpi\n      pop\n        /* \"src/contract/Game.sol\":1324:1325  2 */\n      0x02\n        /* \"src/contract/Game.sol\":1314:1320  result */\n      dup3\n        /* \"src/contract/Game.sol\":1314:1325  result == 2 */\n      eq\n        /* \"src/contract/Game.sol\":1298:1325  _option == 1 && result == 2 */\n    tag_30:\n        /* \"src/contract/Game.sol\":1294:1359  if (_option == 1 && result == 2) {... */\n      iszero\n      tag_31\n      jumpi\n        /* \"src/contract/Game.sol\":1347:1348  1 */\n      0x01\n        /* \"src/contract/Game.sol\":1341:1348  win = 1 */\n      swap1\n      pop\n        /* \"src/contract/Game.sol\":1294:1359  if (_option == 1 && result == 2) {... */\n    tag_31:\n        /* \"src/contract/Game.sol\":1383:1384  2 */\n      0x02\n        /* \"src/contract/Game.sol\":1372:1379  _option */\n      dup5\n        /* \"src/contract/Game.sol\":1372:1384  _option == 2 */\n      0xff\n      and\n      eq\n        /* \"src/contract/Game.sol\":1372:1399  _option == 2 && result == 0 */\n      dup1\n      iszero\n      tag_32\n      jumpi\n      pop\n        /* \"src/contract/Game.sol\":1398:1399  0 */\n      0x00\n        /* \"src/contract/Game.sol\":1388:1394  result */\n      dup3\n        /* \"src/contract/Game.sol\":1388:1399  result == 0 */\n      eq\n        /* \"src/contract/Game.sol\":1372:1399  _option == 2 && result == 0 */\n    tag_32:\n        /* \"src/contract/Game.sol\":1368:1433  if (_option == 2 && result == 0) {... */\n      iszero\n      tag_33\n      jumpi\n        /* \"src/contract/Game.sol\":1421:1422  1 */\n      0x01\n        /* \"src/contract/Game.sol\":1415:1422  win = 1 */\n      swap1\n      pop\n        /* \"src/contract/Game.sol\":1368:1433  if (_option == 2 && result == 0) {... */\n    tag_33:\n        /* \"src/contract/Game.sol\":1457:1458  2 */\n      0x02\n        /* \"src/contract/Game.sol\":1446:1453  _option */\n      dup5\n        /* \"src/contract/Game.sol\":1446:1458  _option == 2 */\n      0xff\n      and\n      eq\n        /* \"src/contract/Game.sol\":1446:1473  _option == 2 && result == 1 */\n      dup1\n      iszero\n      tag_34\n      jumpi\n      pop\n        /* \"src/contract/Game.sol\":1472:1473  1 */\n      0x01\n        /* \"src/contract/Game.sol\":1462:1468  result */\n      dup3\n        /* \"src/contract/Game.sol\":1462:1473  result == 1 */\n      eq\n        /* \"src/contract/Game.sol\":1446:1473  _option == 2 && result == 1 */\n    tag_34:\n        /* \"src/contract/Game.sol\":1442:1507  if (_option == 2 && result == 1) {... */\n      iszero\n      tag_35\n      jumpi\n        /* \"src/contract/Game.sol\":1495:1496  2 */\n      0x02\n        /* \"src/contract/Game.sol\":1489:1496  win = 2 */\n      swap1\n      pop\n        /* \"src/contract/Game.sol\":1442:1507  if (_option == 2 && result == 1) {... */\n    tag_35:\n        /* \"src/contract/Game.sol\":1528:1529  1 */\n      0x01\n        /* \"src/contract/Game.sol\":1521:1524  win */\n      dup2\n        /* \"src/contract/Game.sol\":1521:1529  win == 1 */\n      0xff\n      and\n      sub\n        /* \"src/contract/Game.sol\":1517:1624  if (win == 1) {... */\n      tag_36\n      jumpi\n        /* \"src/contract/Game.sol\":1553:1563  msg.sender */\n      caller\n        /* \"src/contract/Game.sol\":1545:1573  payable(msg.sender).transfer */\n      0xffffffffffffffffffffffffffffffffffffffff\n      and\n        /* \"src/contract/Game.sol\":1545:1588  payable(msg.sender).transfer(msg.value * 2) */\n      0x08fc\n        /* \"src/contract/Game.sol\":1586:1587  2 */\n      0x02\n        /* \"src/contract/Game.sol\":1574:1583  msg.value */\n      callvalue\n        /* \"src/contract/Game.sol\":1574:1587  msg.value * 2 */\n      tag_37\n      swap2\n      swap1\n      tag_17\n      jump\t// in\n    tag_37:\n        /* \"src/contract/Game.sol\":1545:1588  payable(msg.sender).transfer(msg.value * 2) */\n      swap1\n      dup2\n      iszero\n      mul\n      swap1\n      mload(0x40)\n      0x00\n      mload(0x40)\n      dup1\n      dup4\n      sub\n      dup2\n      dup6\n      dup9\n      dup9\n      call\n      swap4\n      pop\n      pop\n      pop\n      pop\n      iszero\n      dup1\n      iszero\n      tag_39\n      jumpi\n      returndatasize\n      0x00\n      dup1\n      returndatacopy\n      revert(0x00, returndatasize)\n    tag_39:\n      pop\n        /* \"src/contract/Game.sol\":1609:1613  true */\n      0x01\n        /* \"src/contract/Game.sol\":1602:1613  return true */\n      swap3\n      pop\n      pop\n      pop\n      jump(tag_12)\n        /* \"src/contract/Game.sol\":1517:1624  if (win == 1) {... */\n    tag_36:\n        /* \"src/contract/Game.sol\":1645:1646  2 */\n      0x02\n        /* \"src/contract/Game.sol\":1638:1641  win */\n      dup2\n        /* \"src/contract/Game.sol\":1638:1646  win == 2 */\n      0xff\n      and\n      sub\n        /* \"src/contract/Game.sol\":1634:1742  if (win == 2) {... */\n      tag_40\n      jumpi\n        /* \"src/contract/Game.sol\":1670:1680  msg.sender */\n      caller\n        /* \"src/contract/Game.sol\":1662:1690  payable(msg.sender).transfer */\n      0xffffffffffffffffffffffffffffffffffffffff\n      and\n        /* \"src/contract/Game.sol\":1662:1705  payable(msg.sender).transfer(msg.value * 1) */\n      0x08fc\n        /* \"src/contract/Game.sol\":1703:1704  1 */\n      0x01\n        /* \"src/contract/Game.sol\":1691:1700  msg.value */\n      callvalue\n        /* \"src/contract/Game.sol\":1691:1704  msg.value * 1 */\n      tag_41\n      swap2\n      swap1\n      tag_17\n      jump\t// in\n    tag_41:\n        /* \"src/contract/Game.sol\":1662:1705  payable(msg.sender).transfer(msg.value * 1) */\n      swap1\n      dup2\n      iszero\n      mul\n      swap1\n      mload(0x40)\n      0x00\n      mload(0x40)\n      dup1\n      dup4\n      sub\n      dup2\n      dup6\n      dup9\n      dup9\n      call\n      swap4\n      pop\n      pop\n      pop\n      pop\n      iszero\n      dup1\n      iszero\n      tag_43\n      jumpi\n      returndatasize\n      0x00\n      dup1\n      returndatacopy\n      revert(0x00, returndatasize)\n    tag_43:\n      pop\n        /* \"src/contract/Game.sol\":1726:1731  false */\n      0x00\n        /* \"src/contract/Game.sol\":1719:1731  return false */\n      swap3\n      pop\n      pop\n      pop\n      jump(tag_12)\n        /* \"src/contract/Game.sol\":1634:1742  if (win == 2) {... */\n    tag_40:\n        /* \"src/contract/Game.sol\":1762:1763  0 */\n      0x00\n        /* \"src/contract/Game.sol\":1755:1758  win */\n      dup2\n        /* \"src/contract/Game.sol\":1755:1763  win == 0 */\n      0xff\n      and\n      sub\n        /* \"src/contract/Game.sol\":1751:1859  if (win == 0) {... */\n      tag_44\n      jumpi\n        /* \"src/contract/Game.sol\":1787:1797  msg.sender */\n      caller\n        /* \"src/contract/Game.sol\":1779:1807  payable(msg.sender).transfer */\n      0xffffffffffffffffffffffffffffffffffffffff\n      and\n        /* \"src/contract/Game.sol\":1779:1822  payable(msg.sender).transfer(msg.value * 1) */\n      0x08fc\n        /* \"src/contract/Game.sol\":1820:1821  1 */\n      0x01\n        /* \"src/contract/Game.sol\":1808:1817  msg.value */\n      callvalue\n        /* \"src/contract/Game.sol\":1808:1821  msg.value * 1 */\n      tag_45\n      swap2\n      swap1\n      tag_17\n      jump\t// in\n    tag_45:\n        /* \"src/contract/Game.sol\":1779:1822  payable(msg.sender).transfer(msg.value * 1) */\n      swap1\n      dup2\n      iszero\n      mul\n      swap1\n      mload(0x40)\n      0x00\n      mload(0x40)\n      dup1\n      dup4\n      sub\n      dup2\n      dup6\n      dup9\n      dup9\n      call\n      swap4\n      pop\n      pop\n      pop\n      pop\n      iszero\n      dup1\n      iszero\n      tag_47\n      jumpi\n      returndatasize\n      0x00\n      dup1\n      returndatacopy\n      revert(0x00, returndatasize)\n    tag_47:\n      pop\n        /* \"src/contract/Game.sol\":1843:1848  false */\n      0x00\n        /* \"src/contract/Game.sol\":1836:1848  return false */\n      swap3\n      pop\n      pop\n      pop\n      jump(tag_12)\n        /* \"src/contract/Game.sol\":1751:1859  if (win == 0) {... */\n    tag_44:\n        /* \"src/contract/Game.sol\":1875:1880  false */\n      0x00\n        /* \"src/contract/Game.sol\":1868:1880  return false */\n      swap3\n      pop\n      pop\n      pop\n        /* \"src/contract/Game.sol\":458:1887  function game(uint8 _option) public payable returns (bool) {... */\n    tag_12:\n      swap2\n      swap1\n      pop\n      jump\t// out\n        /* \"#utility.yul\":88:205   */\n    tag_49:\n        /* \"#utility.yul\":197:198   */\n      0x00\n        /* \"#utility.yul\":194:195   */\n      dup1\n        /* \"#utility.yul\":187:199   */\n      revert\n        /* \"#utility.yul\":334:420   */\n    tag_51:\n        /* \"#utility.yul\":369:376   */\n      0x00\n        /* \"#utility.yul\":409:413   */\n      0xff\n        /* \"#utility.yul\":402:407   */\n      dup3\n        /* \"#utility.yul\":398:414   */\n      and\n        /* \"#utility.yul\":387:414   */\n      swap1\n      pop\n        /* \"#utility.yul\":334:420   */\n      swap2\n      swap1\n      pop\n      jump\t// out\n        /* \"#utility.yul\":426:544   */\n    tag_52:\n        /* \"#utility.yul\":497:519   */\n      tag_70\n        /* \"#utility.yul\":513:518   */\n      dup2\n        /* \"#utility.yul\":497:519   */\n      tag_51\n      jump\t// in\n    tag_70:\n        /* \"#utility.yul\":490:495   */\n      dup2\n        /* \"#utility.yul\":487:520   */\n      eq\n        /* \"#utility.yul\":477:538   */\n      tag_71\n      jumpi\n        /* \"#utility.yul\":534:535   */\n      0x00\n        /* \"#utility.yul\":531:532   */\n      dup1\n        /* \"#utility.yul\":524:536   */\n      revert\n        /* \"#utility.yul\":477:538   */\n    tag_71:\n        /* \"#utility.yul\":426:544   */\n      pop\n      jump\t// out\n        /* \"#utility.yul\":550:685   */\n    tag_53:\n        /* \"#utility.yul\":594:599   */\n      0x00\n        /* \"#utility.yul\":632:638   */\n      dup2\n        /* \"#utility.yul\":619:639   */\n      calldataload\n        /* \"#utility.yul\":610:639   */\n      swap1\n      pop\n        /* \"#utility.yul\":648:679   */\n      tag_73\n        /* \"#utility.yul\":673:678   */\n      dup2\n        /* \"#utility.yul\":648:679   */\n      tag_52\n      jump\t// in\n    tag_73:\n        /* \"#utility.yul\":550:685   */\n      swap3\n      swap2\n      pop\n      pop\n      jump\t// out\n        /* \"#utility.yul\":691:1016   */\n    tag_8:\n        /* \"#utility.yul\":748:754   */\n      0x00\n        /* \"#utility.yul\":797:799   */\n      0x20\n        /* \"#utility.yul\":785:794   */\n      dup3\n        /* \"#utility.yul\":776:783   */\n      dup5\n        /* \"#utility.yul\":772:795   */\n      sub\n        /* \"#utility.yul\":768:800   */\n      slt\n        /* \"#utility.yul\":765:884   */\n      iszero\n      tag_75\n      jumpi\n        /* \"#utility.yul\":803:882   */\n      tag_76\n      tag_49\n      jump\t// in\n    tag_76:\n        /* \"#utility.yul\":765:884   */\n    tag_75:\n        /* \"#utility.yul\":923:924   */\n      0x00\n        /* \"#utility.yul\":948:999   */\n      tag_77\n        /* \"#utility.yul\":991:998   */\n      dup5\n        /* \"#utility.yul\":982:988   */\n      dup3\n        /* \"#utility.yul\":971:980   */\n      dup6\n        /* \"#utility.yul\":967:989   */\n      add\n        /* \"#utility.yul\":948:999   */\n      tag_53\n      jump\t// in\n    tag_77:\n        /* \"#utility.yul\":938:999   */\n      swap2\n      pop\n        /* \"#utility.yul\":894:1009   */\n      pop\n        /* \"#utility.yul\":691:1016   */\n      swap3\n      swap2\n      pop\n      pop\n      jump\t// out\n        /* \"#utility.yul\":1022:1112   */\n    tag_54:\n        /* \"#utility.yul\":1056:1063   */\n      0x00\n        /* \"#utility.yul\":1099:1104   */\n      dup2\n        /* \"#utility.yul\":1092:1105   */\n      iszero\n        /* \"#utility.yul\":1085:1106   */\n      iszero\n        /* \"#utility.yul\":1074:1106   */\n      swap1\n      pop\n        /* \"#utility.yul\":1022:1112   */\n      swap2\n      swap1\n      pop\n      jump\t// out\n        /* \"#utility.yul\":1118:1227   */\n    tag_55:\n        /* \"#utility.yul\":1199:1220   */\n      tag_80\n        /* \"#utility.yul\":1214:1219   */\n      dup2\n        /* \"#utility.yul\":1199:1220   */\n      tag_54\n      jump\t// in\n    tag_80:\n        /* \"#utility.yul\":1194:1197   */\n      dup3\n        /* \"#utility.yul\":1187:1221   */\n      mstore\n        /* \"#utility.yul\":1118:1227   */\n      pop\n      pop\n      jump\t// out\n        /* \"#utility.yul\":1233:1443   */\n    tag_11:\n        /* \"#utility.yul\":1320:1324   */\n      0x00\n        /* \"#utility.yul\":1358:1360   */\n      0x20\n        /* \"#utility.yul\":1347:1356   */\n      dup3\n        /* \"#utility.yul\":1343:1361   */\n      add\n        /* \"#utility.yul\":1335:1361   */\n      swap1\n      pop\n        /* \"#utility.yul\":1371:1436   */\n      tag_82\n        /* \"#utility.yul\":1433:1434   */\n      0x00\n        /* \"#utility.yul\":1422:1431   */\n      dup4\n        /* \"#utility.yul\":1418:1435   */\n      add\n        /* \"#utility.yul\":1409:1415   */\n      dup5\n        /* \"#utility.yul\":1371:1436   */\n      tag_55\n      jump\t// in\n    tag_82:\n        /* \"#utility.yul\":1233:1443   */\n      swap3\n      swap2\n      pop\n      pop\n      jump\t// out\n        /* \"#utility.yul\":1449:1618   */\n    tag_56:\n        /* \"#utility.yul\":1533:1544   */\n      0x00\n        /* \"#utility.yul\":1567:1573   */\n      dup3\n        /* \"#utility.yul\":1562:1565   */\n      dup3\n        /* \"#utility.yul\":1555:1574   */\n      mstore\n        /* \"#utility.yul\":1607:1611   */\n      0x20\n        /* \"#utility.yul\":1602:1605   */\n      dup3\n        /* \"#utility.yul\":1598:1612   */\n      add\n        /* \"#utility.yul\":1583:1612   */\n      swap1\n      pop\n        /* \"#utility.yul\":1449:1618   */\n      swap3\n      swap2\n      pop\n      pop\n      jump\t// out\n        /* \"#utility.yul\":1624:1919   */\n    tag_57:\n        /* \"#utility.yul\":1764:1798   */\n      0x596f752063616e2063686f6f7365206f6e6c7920302c2031206f7220323f2077\n        /* \"#utility.yul\":1760:1761   */\n      0x00\n        /* \"#utility.yul\":1752:1758   */\n      dup3\n        /* \"#utility.yul\":1748:1762   */\n      add\n        /* \"#utility.yul\":1741:1799   */\n      mstore\n        /* \"#utility.yul\":1833:1867   */\n      0x68657265203020202d20726f636b2c2032202d2050617065722c2031202d2073\n        /* \"#utility.yul\":1828:1830   */\n      0x20\n        /* \"#utility.yul\":1820:1826   */\n      dup3\n        /* \"#utility.yul\":1816:1831   */\n      add\n        /* \"#utility.yul\":1809:1868   */\n      mstore\n        /* \"#utility.yul\":1902:1911   */\n      0x636973736f727300000000000000000000000000000000000000000000000000\n        /* \"#utility.yul\":1897:1899   */\n      0x40\n        /* \"#utility.yul\":1889:1895   */\n      dup3\n        /* \"#utility.yul\":1885:1900   */\n      add\n        /* \"#utility.yul\":1878:1912   */\n      mstore\n        /* \"#utility.yul\":1624:1919   */\n      pop\n      jump\t// out\n        /* \"#utility.yul\":1925:2291   */\n    tag_58:\n        /* \"#utility.yul\":2067:2070   */\n      0x00\n        /* \"#utility.yul\":2088:2155   */\n      tag_86\n        /* \"#utility.yul\":2152:2154   */\n      0x47\n        /* \"#utility.yul\":2147:2150   */\n      dup4\n        /* \"#utility.yul\":2088:2155   */\n      tag_56\n      jump\t// in\n    tag_86:\n        /* \"#utility.yul\":2081:2155   */\n      swap2\n      pop\n        /* \"#utility.yul\":2164:2257   */\n      tag_87\n        /* \"#utility.yul\":2253:2256   */\n      dup3\n        /* \"#utility.yul\":2164:2257   */\n      tag_57\n      jump\t// in\n    tag_87:\n        /* \"#utility.yul\":2282:2284   */\n      0x60\n        /* \"#utility.yul\":2277:2280   */\n      dup3\n        /* \"#utility.yul\":2273:2285   */\n      add\n        /* \"#utility.yul\":2266:2285   */\n      swap1\n      pop\n        /* \"#utility.yul\":1925:2291   */\n      swap2\n      swap1\n      pop\n      jump\t// out\n        /* \"#utility.yul\":2297:2716   */\n    tag_15:\n        /* \"#utility.yul\":2463:2467   */\n      0x00\n        /* \"#utility.yul\":2501:2503   */\n      0x20\n        /* \"#utility.yul\":2490:2499   */\n      dup3\n        /* \"#utility.yul\":2486:2504   */\n      add\n        /* \"#utility.yul\":2478:2504   */\n      swap1\n      pop\n        /* \"#utility.yul\":2550:2559   */\n      dup2\n        /* \"#utility.yul\":2544:2548   */\n      dup2\n        /* \"#utility.yul\":2540:2560   */\n      sub\n        /* \"#utility.yul\":2536:2537   */\n      0x00\n        /* \"#utility.yul\":2525:2534   */\n      dup4\n        /* \"#utility.yul\":2521:2538   */\n      add\n        /* \"#utility.yul\":2514:2561   */\n      mstore\n        /* \"#utility.yul\":2578:2709   */\n      tag_89\n        /* \"#utility.yul\":2704:2708   */\n      dup2\n        /* \"#utility.yul\":2578:2709   */\n      tag_58\n      jump\t// in\n    tag_89:\n        /* \"#utility.yul\":2570:2709   */\n      swap1\n      pop\n        /* \"#utility.yul\":2297:2716   */\n      swap2\n      swap1\n      pop\n      jump\t// out\n        /* \"#utility.yul\":2722:2799   */\n    tag_59:\n        /* \"#utility.yul\":2759:2766   */\n      0x00\n        /* \"#utility.yul\":2788:2793   */\n      dup2\n        /* \"#utility.yul\":2777:2793   */\n      swap1\n      pop\n        /* \"#utility.yul\":2722:2799   */\n      swap2\n      swap1\n      pop\n      jump\t// out\n        /* \"#utility.yul\":2805:2985   */\n    tag_60:\n        /* \"#utility.yul\":2853:2930   */\n      0x4e487b7100000000000000000000000000000000000000000000000000000000\n        /* \"#utility.yul\":2850:2851   */\n      0x00\n        /* \"#utility.yul\":2843:2931   */\n      mstore\n        /* \"#utility.yul\":2950:2954   */\n      0x11\n        /* \"#utility.yul\":2947:2948   */\n      0x04\n        /* \"#utility.yul\":2940:2955   */\n      mstore\n        /* \"#utility.yul\":2974:2978   */\n      0x24\n        /* \"#utility.yul\":2971:2972   */\n      0x00\n        /* \"#utility.yul\":2964:2979   */\n      revert\n        /* \"#utility.yul\":2991:3401   */\n    tag_17:\n        /* \"#utility.yul\":3031:3038   */\n      0x00\n        /* \"#utility.yul\":3054:3074   */\n      tag_93\n        /* \"#utility.yul\":3072:3073   */\n      dup3\n        /* \"#utility.yul\":3054:3074   */\n      tag_59\n      jump\t// in\n    tag_93:\n        /* \"#utility.yul\":3049:3074   */\n      swap2\n      pop\n        /* \"#utility.yul\":3088:3108   */\n      tag_94\n        /* \"#utility.yul\":3106:3107   */\n      dup4\n        /* \"#utility.yul\":3088:3108   */\n      tag_59\n      jump\t// in\n    tag_94:\n        /* \"#utility.yul\":3083:3108   */\n      swap3\n      pop\n        /* \"#utility.yul\":3143:3144   */\n      dup3\n        /* \"#utility.yul\":3140:3141   */\n      dup3\n        /* \"#utility.yul\":3136:3145   */\n      mul\n        /* \"#utility.yul\":3165:3195   */\n      tag_95\n        /* \"#utility.yul\":3183:3194   */\n      dup2\n        /* \"#utility.yul\":3165:3195   */\n      tag_59\n      jump\t// in\n    tag_95:\n        /* \"#utility.yul\":3154:3195   */\n      swap2\n      pop\n        /* \"#utility.yul\":3344:3345   */\n      dup3\n        /* \"#utility.yul\":3335:3342   */\n      dup3\n        /* \"#utility.yul\":3331:3346   */\n      div\n        /* \"#utility.yul\":3328:3329   */\n      dup5\n        /* \"#utility.yul\":3325:3347   */\n      eq\n        /* \"#utility.yul\":3305:3306   */\n      dup4\n        /* \"#utility.yul\":3298:3307   */\n      iszero\n        /* \"#utility.yul\":3278:3361   */\n      or\n        /* \"#utility.yul\":3255:3394   */\n      tag_96\n      jumpi\n        /* \"#utility.yul\":3374:3392   */\n      tag_97\n      tag_60\n      jump\t// in\n    tag_97:\n        /* \"#utility.yul\":3255:3394   */\n    tag_96:\n        /* \"#utility.yul\":3039:3401   */\n      pop\n        /* \"#utility.yul\":2991:3401   */\n      swap3\n      swap2\n      pop\n      pop\n      jump\t// out\n        /* \"#utility.yul\":3407:3632   */\n    tag_61:\n        /* \"#utility.yul\":3547:3581   */\n      0x4164647265737320646f206e6f7420686176652073756666696369656e742062\n        /* \"#utility.yul\":3543:3544   */\n      0x00\n        /* \"#utility.yul\":3535:3541   */\n      dup3\n        /* \"#utility.yul\":3531:3545   */\n      add\n        /* \"#utility.yul\":3524:3582   */\n      mstore\n        /* \"#utility.yul\":3616:3624   */\n      0x616c616e63650000000000000000000000000000000000000000000000000000\n        /* \"#utility.yul\":3611:3613   */\n      0x20\n        /* \"#utility.yul\":3603:3609   */\n      dup3\n        /* \"#utility.yul\":3599:3614   */\n      add\n        /* \"#utility.yul\":3592:3625   */\n      mstore\n        /* \"#utility.yul\":3407:3632   */\n      pop\n      jump\t// out\n        /* \"#utility.yul\":3638:4004   */\n    tag_62:\n        /* \"#utility.yul\":3780:3783   */\n      0x00\n        /* \"#utility.yul\":3801:3868   */\n      tag_100\n        /* \"#utility.yul\":3865:3867   */\n      0x26\n        /* \"#utility.yul\":3860:3863   */\n      dup4\n        /* \"#utility.yul\":3801:3868   */\n      tag_56\n      jump\t// in\n    tag_100:\n        /* \"#utility.yul\":3794:3868   */\n      swap2\n      pop\n        /* \"#utility.yul\":3877:3970   */\n      tag_101\n        /* \"#utility.yul\":3966:3969   */\n      dup3\n        /* \"#utility.yul\":3877:3970   */\n      tag_61\n      jump\t// in\n    tag_101:\n        /* \"#utility.yul\":3995:3997   */\n      0x40\n        /* \"#utility.yul\":3990:3993   */\n      dup3\n        /* \"#utility.yul\":3986:3998   */\n      add\n        /* \"#utility.yul\":3979:3998   */\n      swap1\n      pop\n        /* \"#utility.yul\":3638:4004   */\n      swap2\n      swap1\n      pop\n      jump\t// out\n        /* \"#utility.yul\":4010:4429   */\n    tag_20:\n        /* \"#utility.yul\":4176:4180   */\n      0x00\n        /* \"#utility.yul\":4214:4216   */\n      0x20\n        /* \"#utility.yul\":4203:4212   */\n      dup3\n        /* \"#utility.yul\":4199:4217   */\n      add\n        /* \"#utility.yul\":4191:4217   */\n      swap1\n      pop\n        /* \"#utility.yul\":4263:4272   */\n      dup2\n        /* \"#utility.yul\":4257:4261   */\n      dup2\n        /* \"#utility.yul\":4253:4273   */\n      sub\n        /* \"#utility.yul\":4249:4250   */\n      0x00\n        /* \"#utility.yul\":4238:4247   */\n      dup4\n        /* \"#utility.yul\":4234:4251   */\n      add\n        /* \"#utility.yul\":4227:4274   */\n      mstore\n        /* \"#utility.yul\":4291:4422   */\n      tag_103\n        /* \"#utility.yul\":4417:4421   */\n      dup2\n        /* \"#utility.yul\":4291:4422   */\n      tag_62\n      jump\t// in\n    tag_103:\n        /* \"#utility.yul\":4283:4422   */\n      swap1\n      pop\n        /* \"#utility.yul\":4010:4429   */\n      swap2\n      swap1\n      pop\n      jump\t// out\n        /* \"#utility.yul\":4435:4615   */\n    tag_63:\n        /* \"#utility.yul\":4483:4560   */\n      0x4e487b7100000000000000000000000000000000000000000000000000000000\n        /* \"#utility.yul\":4480:4481   */\n      0x00\n        /* \"#utility.yul\":4473:4561   */\n      mstore\n        /* \"#utility.yul\":4580:4584   */\n      0x12\n        /* \"#utility.yul\":4577:4578   */\n      0x04\n        /* \"#utility.yul\":4570:4585   */\n      mstore\n        /* \"#utility.yul\":4604:4608   */\n      0x24\n        /* \"#utility.yul\":4601:4602   */\n      0x00\n        /* \"#utility.yul\":4594:4609   */\n      revert\n        /* \"#utility.yul\":4621:4797   */\n    tag_22:\n        /* \"#utility.yul\":4653:4654   */\n      0x00\n        /* \"#utility.yul\":4670:4690   */\n      tag_106\n        /* \"#utility.yul\":4688:4689   */\n      dup3\n        /* \"#utility.yul\":4670:4690   */\n      tag_59\n      jump\t// in\n    tag_106:\n        /* \"#utility.yul\":4665:4690   */\n      swap2\n      pop\n        /* \"#utility.yul\":4704:4724   */\n      tag_107\n        /* \"#utility.yul\":4722:4723   */\n      dup4\n        /* \"#utility.yul\":4704:4724   */\n      tag_59\n      jump\t// in\n    tag_107:\n        /* \"#utility.yul\":4699:4724   */\n      swap3\n      pop\n        /* \"#utility.yul\":4743:4744   */\n      dup3\n        /* \"#utility.yul\":4733:4768   */\n      tag_108\n      jumpi\n        /* \"#utility.yul\":4748:4766   */\n      tag_109\n      tag_63\n      jump\t// in\n    tag_109:\n        /* \"#utility.yul\":4733:4768   */\n    tag_108:\n        /* \"#utility.yul\":4789:4790   */\n      dup3\n        /* \"#utility.yul\":4786:4787   */\n      dup3\n        /* \"#utility.yul\":4782:4791   */\n      mod\n        /* \"#utility.yul\":4777:4791   */\n      swap1\n      pop\n        /* \"#utility.yul\":4621:4797   */\n      swap3\n      swap2\n      pop\n      pop\n      jump\t// out\n\n    auxdata: 0xa26469706673582212203a07b22cedf8b20f596b911dc26378ebfb69f1fc3f3fadf49a866f0db462593c64736f6c63430008120033\n}\n",
				"bytecode": {
					"linkReferences": {},
					"object": "6080604052610633806100136000396000f3fe6080604052600436106100225760003560e01c8063d1e9f9c71461002e57610029565b3661002957005b600080fd5b61004860048036038101906100439190610364565b61005e565b60405161005591906103ac565b60405180910390f35b600060038260ff16106100a6576040517f08c379a000000000000000000000000000000000000000000000000000000000815260040161009d90610470565b60405180910390fd5b6002346100b391906104c9565b4710156100f5576040517f08c379a00000000000000000000000000000000000000000000000000000000081526004016100ec9061057d565b60405180910390fd5b816000806101000a81548160ff021916908360ff160217905550600060034261011e91906105cc565b90506000818460ff160361013157600090505b60008460ff161480156101445750600182145b1561014e57600190505b60008460ff161480156101615750600282145b1561016b57600290505b60018460ff1614801561017e5750600082145b1561018857600290505b60018460ff1614801561019b5750600282145b156101a557600190505b60028460ff161480156101b85750600082145b156101c257600190505b60028460ff161480156101d55750600182145b156101df57600290505b60018160ff1603610248573373ffffffffffffffffffffffffffffffffffffffff166108fc60023461021191906104c9565b9081150290604051600060405180830381858888f1935050505015801561023c573d6000803e3d6000fd5b50600192505050610321565b60028160ff16036102b1573373ffffffffffffffffffffffffffffffffffffffff166108fc60013461027a91906104c9565b9081150290604051600060405180830381858888f193505050501580156102a5573d6000803e3d6000fd5b50600092505050610321565b60008160ff160361031a573373ffffffffffffffffffffffffffffffffffffffff166108fc6001346102e391906104c9565b9081150290604051600060405180830381858888f1935050505015801561030e573d6000803e3d6000fd5b50600092505050610321565b6000925050505b919050565b600080fd5b600060ff82169050919050565b6103418161032b565b811461034c57600080fd5b50565b60008135905061035e81610338565b92915050565b60006020828403121561037a57610379610326565b5b60006103888482850161034f565b91505092915050565b60008115159050919050565b6103a681610391565b82525050565b60006020820190506103c1600083018461039d565b92915050565b600082825260208201905092915050565b7f596f752063616e2063686f6f7365206f6e6c7920302c2031206f7220323f207760008201527f68657265203020202d20726f636b2c2032202d2050617065722c2031202d207360208201527f636973736f727300000000000000000000000000000000000000000000000000604082015250565b600061045a6047836103c7565b9150610465826103d8565b606082019050919050565b600060208201905081810360008301526104898161044d565b9050919050565b6000819050919050565b7f4e487b7100000000000000000000000000000000000000000000000000000000600052601160045260246000fd5b60006104d482610490565b91506104df83610490565b92508282026104ed81610490565b915082820484148315176105045761050361049a565b5b5092915050565b7f4164647265737320646f206e6f7420686176652073756666696369656e74206260008201527f616c616e63650000000000000000000000000000000000000000000000000000602082015250565b60006105676026836103c7565b91506105728261050b565b604082019050919050565b600060208201905081810360008301526105968161055a565b9050919050565b7f4e487b7100000000000000000000000000000000000000000000000000000000600052601260045260246000fd5b60006105d782610490565b91506105e283610490565b9250826105f2576105f161059d565b5b82820690509291505056fea26469706673582212203a07b22cedf8b20f596b911dc26378ebfb69f1fc3f3fadf49a866f0db462593c64736f6c63430008120033",
					"opcodes": "PUSH1 0x80 PUSH1 0x40 MSTORE PUSH2 0x633 DUP1 PUSH2 0x13 PUSH1 0x0 CODECOPY PUSH1 0x0 RETURN INVALID PUSH1 0x80 PUSH1 0x40 MSTORE PUSH1 0x4 CALLDATASIZE LT PUSH2 0x22 JUMPI PUSH1 0x0 CALLDATALOAD PUSH1 0xE0 SHR DUP1 PUSH4 0xD1E9F9C7 EQ PUSH2 0x2E JUMPI PUSH2 0x29 JUMP JUMPDEST CALLDATASIZE PUSH2 0x29 JUMPI STOP JUMPDEST PUSH1 0x0 DUP1 REVERT JUMPDEST PUSH2 0x48 PUSH1 0x4 DUP1 CALLDATASIZE SUB DUP2 ADD SWAP1 PUSH2 0x43 SWAP2 SWAP1 PUSH2 0x364 JUMP JUMPDEST PUSH2 0x5E JUMP JUMPDEST PUSH1 0x40 MLOAD PUSH2 0x55 SWAP2 SWAP1 PUSH2 0x3AC JUMP JUMPDEST PUSH1 0x40 MLOAD DUP1 SWAP2 SUB SWAP1 RETURN JUMPDEST PUSH1 0x0 PUSH1 0x3 DUP3 PUSH1 0xFF AND LT PUSH2 0xA6 JUMPI PUSH1 0x40 MLOAD PUSH32 0x8C379A000000000000000000000000000000000000000000000000000000000 DUP2 MSTORE PUSH1 0x4 ADD PUSH2 0x9D SWAP1 PUSH2 0x470 JUMP JUMPDEST PUSH1 0x40 MLOAD DUP1 SWAP2 SUB SWAP1 REVERT JUMPDEST PUSH1 0x2 CALLVALUE PUSH2 0xB3 SWAP2 SWAP1 PUSH2 0x4C9 JUMP JUMPDEST SELFBALANCE LT ISZERO PUSH2 0xF5 JUMPI PUSH1 0x40 MLOAD PUSH32 0x8C379A000000000000000000000000000000000000000000000000000000000 DUP2 MSTORE PUSH1 0x4 ADD PUSH2 0xEC SWAP1 PUSH2 0x57D JUMP JUMPDEST PUSH1 0x40 MLOAD DUP1 SWAP2 SUB SWAP1 REVERT JUMPDEST DUP2 PUSH1 0x0 DUP1 PUSH2 0x100 EXP DUP2 SLOAD DUP2 PUSH1 0xFF MUL NOT AND SWAP1 DUP4 PUSH1 0xFF AND MUL OR SWAP1 SSTORE POP PUSH1 0x0 PUSH1 0x3 TIMESTAMP PUSH2 0x11E SWAP2 SWAP1 PUSH2 0x5CC JUMP JUMPDEST SWAP1 POP PUSH1 0x0 DUP2 DUP5 PUSH1 0xFF AND SUB PUSH2 0x131 JUMPI PUSH1 0x0 SWAP1 POP JUMPDEST PUSH1 0x0 DUP5 PUSH1 0xFF AND EQ DUP1 ISZERO PUSH2 0x144 JUMPI POP PUSH1 0x1 DUP3 EQ JUMPDEST ISZERO PUSH2 0x14E JUMPI PUSH1 0x1 SWAP1 POP JUMPDEST PUSH1 0x0 DUP5 PUSH1 0xFF AND EQ DUP1 ISZERO PUSH2 0x161 JUMPI POP PUSH1 0x2 DUP3 EQ JUMPDEST ISZERO PUSH2 0x16B JUMPI PUSH1 0x2 SWAP1 POP JUMPDEST PUSH1 0x1 DUP5 PUSH1 0xFF AND EQ DUP1 ISZERO PUSH2 0x17E JUMPI POP PUSH1 0x0 DUP3 EQ JUMPDEST ISZERO PUSH2 0x188 JUMPI PUSH1 0x2 SWAP1 POP JUMPDEST PUSH1 0x1 DUP5 PUSH1 0xFF AND EQ DUP1 ISZERO PUSH2 0x19B JUMPI POP PUSH1 0x2 DUP3 EQ JUMPDEST ISZERO PUSH2 0x1A5 JUMPI PUSH1 0x1 SWAP1 POP JUMPDEST PUSH1 0x2 DUP5 PUSH1 0xFF AND EQ DUP1 ISZERO PUSH2 0x1B8 JUMPI POP PUSH1 0x0 DUP3 EQ JUMPDEST ISZERO PUSH2 0x1C2 JUMPI PUSH1 0x1 SWAP1 POP JUMPDEST PUSH1 0x2 DUP5 PUSH1 0xFF AND EQ DUP1 ISZERO PUSH2 0x1D5 JUMPI POP PUSH1 0x1 DUP3 EQ JUMPDEST ISZERO PUSH2 0x1DF JUMPI PUSH1 0x2 SWAP1 POP JUMPDEST PUSH1 0x1 DUP2 PUSH1 0xFF AND SUB PUSH2 0x248 JUMPI CALLER PUSH20 0xFFFFFFFFFFFFFFFFFFFFFFFFFFFFFFFFFFFFFFFF AND PUSH2 0x8FC PUSH1 0x2 CALLVALUE PUSH2 0x211 SWAP2 SWAP1 PUSH2 0x4C9 JUMP JUMPDEST SWAP1 DUP2 ISZERO MUL SWAP1 PUSH1 0x40 MLOAD PUSH1 0x0 PUSH1 0x40 MLOAD DUP1 DUP4 SUB DUP2 DUP6 DUP9 DUP9 CALL SWAP4 POP POP POP POP ISZERO DUP1 ISZERO PUSH2 0x23C JUMPI RETURNDATASIZE PUSH1 0x0 DUP1 RETURNDATACOPY RETURNDATASIZE PUSH1 0x0 REVERT JUMPDEST POP PUSH1 0x1 SWAP3 POP POP POP PUSH2 0x321 JUMP JUMPDEST PUSH1 0x2 DUP2 PUSH1 0xFF AND SUB PUSH2 0x2B1 JUMPI CALLER PUSH20 0xFFFFFFFFFFFFFFFFFFFFFFFFFFFFFFFFFFFFFFFF AND PUSH2 0x8FC PUSH1 0x1 CALLVALUE PUSH2 0x27A SWAP2 SWAP1 PUSH2 0x4C9 JUMP JUMPDEST SWAP1 DUP2 ISZERO MUL SWAP1 PUSH1 0x40 MLOAD PUSH1 0x0 PUSH1 0x40 MLOAD DUP1 DUP4 SUB DUP2 DUP6 DUP9 DUP9 CALL SWAP4 POP POP POP POP ISZERO DUP1 ISZERO PUSH2 0x2A5 JUMPI RETURNDATASIZE PUSH1 0x0 DUP1 RETURNDATACOPY RETURNDATASIZE PUSH1 0x0 REVERT JUMPDEST POP PUSH1 0x0 SWAP3 POP POP POP PUSH2 0x321 JUMP JUMPDEST PUSH1 0x0 DUP2 PUSH1 0xFF AND SUB PUSH2 0x31A JUMPI CALLER PUSH20 0xFFFFFFFFFFFFFFFFFFFFFFFFFFFFFFFFFFFFFFFF AND PUSH2 0x8FC PUSH1 0x1 CALLVALUE PUSH2 0x2E3 SWAP2 SWAP1 PUSH2 0x4C9 JUMP JUMPDEST SWAP1 DUP2 ISZERO MUL SWAP1 PUSH1 0x40 MLOAD PUSH1 0x0 PUSH1 0x40 MLOAD DUP1 DUP4 SUB DUP2 DUP6 DUP9 DUP9 CALL SWAP4 POP POP POP POP ISZERO DUP1 ISZERO PUSH2 0x30E JUMPI RETURNDATASIZE PUSH1 0x0 DUP1 RETURNDATACOPY RETURNDATASIZE PUSH1 0x0 REVERT JUMPDEST POP PUSH1 0x0 SWAP3 POP POP POP PUSH2 0x321 JUMP JUMPDEST PUSH1 0x0 SWAP3 POP POP POP JUMPDEST SWAP2 SWAP1 POP JUMP JUMPDEST PUSH1 0x0 DUP1 REVERT JUMPDEST PUSH1 0x0 PUSH1 0xFF DUP3 AND SWAP1 POP SWAP2 SWAP1 POP JUMP JUMPDEST PUSH2 0x341 DUP2 PUSH2 0x32B JUMP JUMPDEST DUP2 EQ PUSH2 0x34C JUMPI PUSH1 0x0 DUP1 REVERT JUMPDEST POP JUMP JUMPDEST PUSH1 0x0 DUP2 CALLDATALOAD SWAP1 POP PUSH2 0x35E DUP2 PUSH2 0x338 JUMP JUMPDEST SWAP3 SWAP2 POP POP JUMP JUMPDEST PUSH1 0x0 PUSH1 0x20 DUP3 DUP5 SUB SLT ISZERO PUSH2 0x37A JUMPI PUSH2 0x379 PUSH2 0x326 JUMP JUMPDEST JUMPDEST PUSH1 0x0 PUSH2 0x388 DUP5 DUP3 DUP6 ADD PUSH2 0x34F JUMP JUMPDEST SWAP2 POP POP SWAP3 SWAP2 POP POP JUMP JUMPDEST PUSH1 0x0 DUP2 ISZERO ISZERO SWAP1 POP SWAP2 SWAP1 POP JUMP JUMPDEST PUSH2 0x3A6 DUP2 PUSH2 0x391 JUMP JUMPDEST DUP3 MSTORE POP POP JUMP JUMPDEST PUSH1 0x0 PUSH1 0x20 DUP3 ADD SWAP1 POP PUSH2 0x3C1 PUSH1 0x0 DUP4 ADD DUP5 PUSH2 0x39D JUMP JUMPDEST SWAP3 SWAP2 POP POP JUMP JUMPDEST PUSH1 0x0 DUP3 DUP3 MSTORE PUSH1 0x20 DUP3 ADD SWAP1 POP SWAP3 SWAP2 POP POP JUMP JUMPDEST PUSH32 0x596F752063616E2063686F6F7365206F6E6C7920302C2031206F7220323F2077 PUSH1 0x0 DUP3 ADD MSTORE PUSH32 0x68657265203020202D20726F636B2C2032202D2050617065722C2031202D2073 PUSH1 0x20 DUP3 ADD MSTORE PUSH32 0x636973736F727300000000000000000000000000000000000000000000000000 PUSH1 0x40 DUP3 ADD MSTORE POP JUMP JUMPDEST PUSH1 0x0 PUSH2 0x45A PUSH1 0x47 DUP4 PUSH2 0x3C7 JUMP JUMPDEST SWAP2 POP PUSH2 0x465 DUP3 PUSH2 0x3D8 JUMP JUMPDEST PUSH1 0x60 DUP3 ADD SWAP1 POP SWAP2 SWAP1 POP JUMP JUMPDEST PUSH1 0x0 PUSH1 0x20 DUP3 ADD SWAP1 POP DUP2 DUP2 SUB PUSH1 0x0 DUP4 ADD MSTORE PUSH2 0x489 DUP2 PUSH2 0x44D JUMP JUMPDEST SWAP1 POP SWAP2 SWAP1 POP JUMP JUMPDEST PUSH1 0x0 DUP2 SWAP1 POP SWAP2 SWAP1 POP JUMP JUMPDEST PUSH32 0x4E487B7100000000000000000000000000000000000000000000000000000000 PUSH1 0x0 MSTORE PUSH1 0x11 PUSH1 0x4 MSTORE PUSH1 0x24 PUSH1 0x0 REVERT JUMPDEST PUSH1 0x0 PUSH2 0x4D4 DUP3 PUSH2 0x490 JUMP JUMPDEST SWAP2 POP PUSH2 0x4DF DUP4 PUSH2 0x490 JUMP JUMPDEST SWAP3 POP DUP3 DUP3 MUL PUSH2 0x4ED DUP2 PUSH2 0x490 JUMP JUMPDEST SWAP2 POP DUP3 DUP3 DIV DUP5 EQ DUP4 ISZERO OR PUSH2 0x504 JUMPI PUSH2 0x503 PUSH2 0x49A JUMP JUMPDEST JUMPDEST POP SWAP3 SWAP2 POP POP JUMP JUMPDEST PUSH32 0x4164647265737320646F206E6F7420686176652073756666696369656E742062 PUSH1 0x0 DUP3 ADD MSTORE PUSH32 0x616C616E63650000000000000000000000000000000000000000000000000000 PUSH1 0x20 DUP3 ADD MSTORE POP JUMP JUMPDEST PUSH1 0x0 PUSH2 0x567 PUSH1 0x26 DUP4 PUSH2 0x3C7 JUMP JUMPDEST SWAP2 POP PUSH2 0x572 DUP3 PUSH2 0x50B JUMP JUMPDEST PUSH1 0x40 DUP3 ADD SWAP1 POP SWAP2 SWAP1 POP JUMP JUMPDEST PUSH1 0x0 PUSH1 0x20 DUP3 ADD SWAP1 POP DUP2 DUP2 SUB PUSH1 0x0 DUP4 ADD MSTORE PUSH2 0x596 DUP2 PUSH2 0x55A JUMP JUMPDEST SWAP1 POP SWAP2 SWAP1 POP JUMP JUMPDEST PUSH32 0x4E487B7100000000000000000000000000000000000000000000000000000000 PUSH1 0x0 MSTORE PUSH1 0x12 PUSH1 0x4 MSTORE PUSH1 0x24 PUSH1 0x0 REVERT JUMPDEST PUSH1 0x0 PUSH2 0x5D7 DUP3 PUSH2 0x490 JUMP JUMPDEST SWAP2 POP PUSH2 0x5E2 DUP4 PUSH2 0x490 JUMP JUMPDEST SWAP3 POP DUP3 PUSH2 0x5F2 JUMPI PUSH2 0x5F1 PUSH2 0x59D JUMP JUMPDEST JUMPDEST DUP3 DUP3 MOD SWAP1 POP SWAP3 SWAP2 POP POP JUMP INVALID LOG2 PUSH5 0x6970667358 0x22 SLT KECCAK256 GASPRICE SMOD 0xB2 0x2C 0xED 0xF8 0xB2 0xF MSIZE PUSH12 0x911DC26378EBFB69F1FC3F3F 0xAD DELEGATECALL SWAP11 DUP7 PUSH16 0xDB462593C64736F6C63430008120033 "
				},
				"gasEstimates": {
					"creation": {
						"codeDepositCost": "317400",
						"executionCost": "331",
						"totalCost": "317731"
					},
					"external": {
						"game(uint8)": "infinite"
					}
				},
				"methodIdentifiers": {
					"game(uint8)": "d1e9f9c7"
				}
			},
			"storageLayout": {
				"storage": [
					{
						"astId": 3,
						"contract": "src/contract/Game.sol:Game",
						"label": "option",
						"offset": 0,
						"slot": "0",
						"type": "t_uint8"
					}
				],
				"types": {
					"t_uint8": {
						"encoding": "inplace",
						"label": "uint8",
						"numberOfBytes": "1"
					}
				}
			},
			"userdoc": {
				"kind": "user",
				"methods": {},
				"version": 1
			}
		}
	}
}